:020000040800F2
:1000000090100020450100086B18000885170008B3
:1000100069180008B9010008331D0008000000003D
:100020000000000000000000000000005701000870
:10003000BB010008000000005B0100088D180008EB
:100040005F0100085F0100085F0100085F01000810
:100050005F0100085F0100085F0100085F01000800
:100060005F0100085F0100085F0100085F010008F0
:100070005F0100085F0100085F0100085F010008E0
:100080005F0100085F0100085F0100085F010008D0
:100090005F0100085F0100085F0100085F010008C0
:1000A0005F0100085F0100085F0100085F010008B0
:1000B0005F0100085F0100085F0100085F010008A0
:1000C0005F0100085F0100085F0100085F01000890
:1000D0005F0100085F0100085F0100085F01000880
:1000E0005F0100085F0100085F0100085F01000870
:1000F0005F0100085F0100085F0100085F01000860
:100100005F0100085F010008411900085F01000855
:100110005F0100085F0100085F0100085F0100083F
:100120005F0100085F0100085F0100085F0100082F
:10013000DFF80CD000F02EF800480047E11E000860
:10014000901000200648804706480047FEE7FEE77B
:10015000FEE7FEE7FEE7FEE7FEE7FEE7FEE7FEE777
:10016000F91800083101000830B50B46014600209F
:100170002022012409E021FA02F59D4205D303FA69
:1001800002F5491B04FA02F52844151EA2F10102EA
:10019000F1DC30BD064C074D06E0E06840F001039D
:1001A00094E8070098471034AC42F6D3FFF7C4FF39
:1001B000A81F0008C81F0008FEE7FEE730B58BB097
:1001C00018481749016047214160002484604FF6B8
:1001D000FF71C160046100F074FF4FF4805007901C
:1001E00007A9104800F0C8FF0594069405A90D481A
:1001F00000F03FFF0194012502950394049400222E
:1002000001A9084801F088F8019402950394049428
:10021000042201A9034801F07FF80BB030BD0000B3
:10022000000C00401400002031B500F01DF9044618
:1002300000F01AF90099001B8842F9D338BD00007C
:100240002DE9F84F00230024DFF8DC914FF00F0870
:1002500009F1040A0AF1040B0BF1040E0127A7406F
:100260000A683A40BA4275D1DFF8C0C14D68A5EBC3
:100270000C0665452BD00DDC032D34D005DC35B3E1
:10028000012D19D0022D2FD11BE0112D16D0122DCA
:100290002AD119E0B6F5881F19D006DCB6F5803FE3
:1002A00015D0B6F5801F1FD111E0B6F5001F0ED096
:1002B000B6F5041F18D10AE0CB6815E0CB681B1D0A
:1002C00012E0CB6808330FE0CB680C330CE08B688E
:1002D00023B1012B04D00823476105E0042303E088
:1002E0000823076100E00023FF2A01D8054601E04A
:1002F00000F1040502D84FEA840603E0A4F10806E1
:100300004FEA86062F6808FA06FC27EA0C0703FA6C
:1003100006F647EA06072F604D68ED007ED5444D8E
:10032000AE6946F00106AE61AD6905F001050095C4
:10033000404D24F003067719BE68A5072D0F08FA73
:1003400005FC26EA0C06DFF8F0C0604503D14FF04B
:10035000000C25E062E0DFF8E4C0604502D14FF018
:10036000010C1DE0DFF8D8C0604502D14FF0020C4F
:1003700016E0DFF8D0C0604502D14FF0030C0FE06B
:10038000DFF8C4C0604502D14FF0040C08E0DFF88C
:10039000BCC0604502D14FF0050C01E04FF0060CE7
:1003A0000CFA05FC4CEA060CC7F808C04D68ED03D2
:1003B00005D5D9F800501543C9F8005004E0D9F824
:1003C00000509543C9F800504D68AD0305D5DAF8E3
:1003D00000501543CAF8005004E0DAF80050954385
:1003E000CAF800504D68ED0205D5DBF80050154302
:1003F000CBF8005004E0DBF800509543CBF80050F8
:100400004D68AD0205D5DEF800501543CEF800501A
:1004100004E0DEF800509543CEF80050641C102C28
:10042000FFF41CAFBDE8F88F00040140000011107C
:10043000001002400000014000080140000C014093
:10044000001001400014014000180140001C014050
:10045000C2684A40C2607047002A01D001617047FB
:1004600009040161704700000148006870470000FE
:100470000400002002480168491C01607047000028
:100480000400002010B50748016841F01001016028
:10049000032000F075F8002000F006F800F016F8D0
:1004A000002010BD0020024010B5044600F0D6F92F
:1004B0004FF47A72B0FBF2F000F0C1FD0022214649
:1004C000501E00F03DF8002010BD000008B5154892
:1004D000816941F001018161806900F001000090B3
:1004E000052000F04DF8002211466FF00B0000F0DF
:1004F00027F8002211466FF00A0000F021F80022D0
:1005000011466FF0090000F01BF800221146101F81
:1005100000F016F80022BDE808401146501E00F019
:100520000FB800000010024000F01F0201219140AE
:100530004009800000F1E020C0F800117047000081
:10054000F0B40D460D4B1B68C3F30223C3F107043F
:10055000042C00D90424191D072901D2002300E02E
:10056000DB1E012606FA04F1491E294099409E40EF
:10057000761E16403143F0BC01F078B90CED00E076
:1005800000F00701054A10684FF6FF03184040EAE3
:100590000120034908431060704700000CED00E0A3
:1005A0000000FA052DE9F04704460F46DFF8A49253
:1005B000D9F80000A84D00F00701012043044606C9
:1005C0004FF0020C41F28838B9426FD2D9F80010CE
:1005D00021F007013943C9F80010D9F8001001F0E3
:1005E0000701B94201D0BDE8F0872178890705D518
:1005F0006968A26821F0F001114369602178C90798
:1006000061D0616801290BD002291FD09CFAACF29D
:10061000B2FA82F242F0200252092DD02A682CE070
:1006200093FAA3F2B2FA82F242F02002520901D008
:100630002A6800E06A6A93FAA3F3B3FA83F303F03B
:100640001F039840024223D10120CCE796FAA6F27C
:10065000B2FA82F242F02002520901D02A6800E088
:100660006A6A96FAA6F3B3FA83F303F01F0398407D
:1006700002420DD10120B6E76A6A9CFAACF3B3FAE4
:1006800083F303F01F039840024201D10120AAE73F
:10069000686820F0030008436860FFF7E5FE06463F
:1006A000606801280AD0022815D021E025E0FFF774
:1006B000DBFE801B404501D9032094E76868C0F346
:1006C00081000128F3D1ADE0FFF7CEFE801B40454D
:1006D00001D9032087E76868C0F381000228F3D1BD
:1006E000A0E0FFF7C1FE801B404501D903207AE757
:1006F000686810F00C0FF4D194E02178890705D5D3
:100700006968A26821F0F001114369602178C90786
:1007100079D0616801290BD002291FD09CFAACF274
:10072000B2FA82F242F0200252092DD02A682CE05F
:1007300093FAA3F2B2FA82F242F02002520901D0F7
:100740002A6800E06A6A93FAA3F3B3FA83F303F02A
:100750001F039840024223D1012044E796FAA6F2F3
:10076000B2FA82F242F02002520901D02A6800E077
:100770006A6A96FAA6F3B3FA83F303F01F0398406C
:1007800002420DD101202EE76A6A9CFAACF3B3FA5B
:1007900083F303F01F039840024201D1012022E7B6
:1007A000686820F0030008436860FFF75DFE0646B6
:1007B0006068012809D0022814D020E0FFF754FE19
:1007C000801B404501D903200DE76868C0F3810014
:1007D0000128F3D117E0FFF747FE801B404501D900
:1007E000032000E76868C0F381000228F3D10AE023
:1007F000FFF73AFE801B404501D90320F3E6686805
:1008000010F00C0FF4D1D9F8000020F007003843A5
:10081000C9F80000D9F8000000F00700B84201D084
:100820000120E0E62078400705D56868E16820F4FB
:10083000E060084368602078000706D56868216991
:1008400020F4605040EAC10068600020FFF72CFEF1
:100850000020C8E6002002400010024000B500F071
:1008600043F808494968F02292FAA2F201F0F00137
:10087000B2FA82F2D140044A515CC8400349086090
:1008800000BD000000100240981F0008000000207A
:1008900000B5FFF7E3FF074949684FF4E06292FAB9
:1008A000A2F201F4E061B2FA82F2D140024A515C54
:1008B000C84000BD00100240981F000800B5FFF7B7
:1008C000CDFF074949684FF4605292FAA2F201F451
:1008D0006051B2FA82F2D140024A515CC84000BD78
:1008E00000100240981F000810B585B01AA0D0E98A
:1008F0000031D0E90220CDE90131CDE903201AA071
:1009000000680090194B5968194801F00C02042A3C
:100910001DD0082A1BD14FF4701494FAA4F401F4EA
:100920007012B4FA84F4E24001ACA25CC90310D5A1
:1009300059684FF4003393FAA3F301F40031B3FA8A
:1009400083F3D9401DF80110B0FBF1F0504305B01E
:1009500010BD08485043FAE70203040506070809DA
:100960000A0B0C0D0E0F10100102000000100240C7
:1009700000127A0000093D002DE9F84F0446F94DB8
:1009800020784FF00106C00775D068687704C0F37F
:100990008100012807D06868C0F3810002281DD1BA
:1009A0006868C0031AD597FAA7F0B0FA80F040F053
:1009B0002000400901D0286800E0686A97FAA7F192
:1009C000B1FA81F101F01F0206FA02F1084252D099
:1009D000606800284FD10120BDE8F88F286820F416
:1009E00080302860286820F480202860FFF73CFDD4
:1009F000804607E0FFF738FDA0EB0800642801D926
:100A00000320E9E797FAA7F0B0FA80F040F0200061
:100A1000400901D0286800E0686A97FAA7F1B1FAA6
:100A200081F101F01F0106FA01F10842E2D160688C
:100A3000B0F5803F11D0A8B1B0F5A02F1CD0286828
:100A400020F480302860286820F4802028606068C6
:100A5000C8B3FFF709FD80461FE0286840F48030E6
:100A60002860F4E7286820F480302860286820F4A3
:100A700080202860EBE748E0286840F48020286068
:100A8000286840F480302860E1E7FFF7EDFCA0EB38
:100A90000800642801D903209EE797FAA7F0B0FA6E
:100AA00080F040F02000400901D0286800E0686A2A
:100AB00097FAA7F1B1FA81F101F01F0106FA01F1ED
:100AC0000842E2D021E0FFE7FFF7CEFC804607E0D6
:100AD000FFF7CAFCA0EB0800642801D903207BE7DC
:100AE00097FAA7F0B0FA80F040F02000400901D05A
:100AF000286800E0686A97FAA7F1B1FA81F101F07D
:100B00001F0106FA01F10842E2D12078DFF858828D
:100B100080074FF0000B4FF0020732D568684FF0A6
:100B2000F80A10F00C0F07D06868C0F381000228A3
:100B300028D16868C00325D497FAA7F0B0FA80F0EE
:100B400040F02000400901D0286800E0686A97FA68
:100B5000A7F1B1FA81F101F01F0106FA01F1084293
:100B600004D02069012801D0012035E728689AFACD
:100B7000AAF26169B2FA82F220F0F80091400843CB
:100B800028605CE0206990B396FAA6F0B0FA80F095
:100B900048F82060FFF768FC814607E0FFF764FC37
:100BA000A0EB0900022801D9032015E797FAA7F066
:100BB000B0FA80F040F02000400901D0286800E041
:100BC000686A97FAA7F1B1FA81F101F01F0106FAFC
:100BD00001F10842E2D028689AFAAAF26169B2FAF1
:100BE00082F220F0F80091400843286027E0FFE7F8
:100BF00096FAA6F0B0FA80F048F820B0FFF734FC7F
:100C0000814607E0FFF730FCA0EB0900022801D97C
:100C10000320E1E697FAA7F0B0FA80F040F0200058
:100C2000400901D0286800E0686A97FAA7F1B1FA94
:100C300081F101F01F0106FA01F10842E2D12078AA
:100C4000000770D5A069C0B396FAA6F0B0FA80F09C
:100C500008EB8000C0F88064FFF706FC814607E0DF
:100C6000FFF702FCA0EB0900022801D90320B3E63C
:100C700097FAA7F0B0FA80F040F06000B6EB501F92
:100C800001D128680BE097FAA7F0B0FA80F040F0A5
:100C90006000B7EB501F01D1286A00E0686A97FA3C
:100CA000A7F1B1FA81F101F01F0206FA02F1084240
:100CB000D6D00120FFF7B8FA35E0FFE796FAA6F0A4
:100CC000B0FA80F008EB8000C0F880B4FFF7CCFBEE
:100CD000814607E0FFF7C8FBA0EB0900022801D915
:100CE000032079E697FAA7F0B0FA80F040F06000B0
:100CF000B6EB501F01D128680BE097FAA7F0B0FAC5
:100D000080F040F06000B7EB501F01D1286A00E08E
:100D1000686A97FAA7F1B1FA81F101F01F0206FAA9
:100D200002F10842D6D12078400770D5E86940F03A
:100D30008050E861E86900F080500090DFF82CA056
:100D4000DAF8000040F48070CAF80000FFF78CFB6E
:100D500081460DE0FFF788FBA0EB0900642807D966
:100D6000032039E6001002400000424200700040BB
:100D7000DAF80000C005EDD5286A20F001002862ED
:100D8000286A20F004002862FFF76EFB814641F2DA
:100D9000883A07E0FFF768FBA0EB0900504501D94E
:100DA000032019E697FAA7F0B0FA80F040F040006F
:100DB000B6EB501F01D128680BE097FAA7F0B0FA04
:100DC00080F040F04000B7EB501F01D1286A00E0EE
:100DD000686A97FAA7F1B1FA81F101F01F0106FAEA
:100DE00001F10842D6D1E068012811D0A8B1052848
:100DF0001CD0286A20F001002862286A20F0040034
:100E00002862E068C8B3FFF72FFB81461FE06EE061
:100E1000286A40F001002862F3E7286A20F0010008
:100E20002862286A20F004002862EAE7286A40F075
:100E300004002862286A40F001002862E1E7FFF719
:100E400013FBA0EB0900504501D90320C4E597FA34
:100E5000A7F0B0FA80F040F04000B6EB501F01D18F
:100E600028680CE097FAA7F0B0FA80F040F0400054
:100E7000B7EB501F02D1286A01E00BE0686A97FACD
:100E8000A7F1B1FA81F101F01F0206FA02F108425E
:100E9000D5D02CE0FFF7E8FA814607E0FFF7E4FA47
:100EA000A0EB0900504501D9032095E597FAA7F07A
:100EB000B0FA80F040F04000B6EB501F01D1286836
:100EC0000BE097FAA7F0B0FA80F040F04000B7EBE3
:100ED000501F01D1286A00E0686A97FAA7F1B1FAB9
:100EE00081F101F01F0206FA02F10842D6D1E06951
:100EF00080B36968C1F38101022970D04FF0807915
:100F00004FF00077022809D099FAA9F0B0FA80F0E2
:100F100048F820B0FFF7A8FA044668E099FAA9F06B
:100F2000B0FA80F048F820B0FFF79EFA824607E05A
:100F3000FFF79AFAA0EB0A00022801D903204BE53B
:100F400097FAA7F0B0FA80F040F02000400902D0F4
:100F5000286801E060E0686A97FAA7F1B1FA81F1C8
:100F600001F01F0106FA01F10842E1D1206AB0F553
:100F7000803F05D16868A16820F4003008436860AC
:100F8000D4E908010843696821F4741108436860D2
:100F900099FAA9F0B0FA80F048F82060FFF764FAF7
:100FA000044606E0FFF760FA001B022801D903207F
:100FB00012E597FAA7F0B0FA80F040F0200040095F
:100FC00001D0296800E0696A97FAA7F0B0FA80F0CA
:100FD00000F01F0006FA00F00142E3D01CE01DE023
:100FE000FFF742FA001B022801D90320F4E497FA24
:100FF000A7F0B0FA80F040F02000400901D0296845
:1010000000E0696A97FAA7F0B0FA80F000F01F00DC
:1010100006FA00F00142E3D10020DDE40120DBE428
:101020004FF0E021042804D0086920F00400086192
:101030007047086940F0040008617047704710B5B8
:10104000401EB0F1807F01D3012010BD4FF0E0249D
:1010500060610F21601700F009FC0020A0610720EB
:101060002061002010BD10B5FFF7E8FF10BD7047EC
:10107000704730B590F83820012A20D0012380F83D
:101080003830022280F839200268546824F0700455
:101090005460026854680D682C4354600268946878
:1010A00024F0800494600268946849680C4394605A
:1010B00080F83930002180F83810002030BD02203F
:1010C00030BD10B50446002C03D094F8390010B19F
:1010D00007E0012010BD002084F83800204600F011
:1010E0000DF8022084F83900211D206800F02EFC44
:1010F000012084F83900002010BD000000B585B043
:1011000000681449884222D11348C16941F008019E
:10111000C161C16901F008010091816941F00401D8
:101120008161806900F0040000900320019000209C
:1011300002900220039001A90848FFF781F80022DD
:1011400011463220FFF7FCF93220FFF7EDF905B028
:1011500000BD0000000C00400010024000080140EB
:101160000168CA6842F00102CA600068016841F083
:10117000010101600020704770B5044694F8380002
:10118000012817D0012584F83850022084F839004E
:101190002068826822F0770222F47F428260086829
:1011A00050283AD00DDC20285FD005DCA0B31028F1
:1011B00064D155E0022070BD30285BD040285DD15D
:1011C0003FE0602833D070280CD0B0F5805F03D0AA
:1011D000B0F5005F52D113E02068816821F007016B
:1011E00081604BE0CB68D1E90121206800F0FDFB74
:1011F0002068816821F0770141F0770181603DE04E
:10120000CB68D1E90121206800F0EFFB20688168FC
:1012100041F48041816031E01DE0CA68496820687E
:1012200000F0F5FB5021206800F0E9FB26E0CA68D9
:101230004968206800F032FC6021206800F0DFFB84
:101240001CE0CA684968206800F0E1FB4021206882
:1012500000F0D5FB12E00021206800F0D0FB0DE08B
:101260001021206800F0CBFB08E02021206800F06E
:10127000C6FB03E03021206800F0C1FB3834657004
:101280000020207070BD00002DE9FF4105461F4E73
:101290000024012770781E4A00281CD00121104626
:1012A000FFF7D6F804211B4800F080F97080009405
:1012B00001970294039404226946164800F02CF822
:1012C0002968601F08610021124800F083F87470DB
:1012D0003770BDE8FF8101211046FFF7B9F8286893
:1012E0004462B480748000940197029403940022B5
:1012F0006946084800F010F829686FF0020008619C
:101300000421044800F066F87770E2E70800002046
:10131000000C01401400002070B504460D4694F8FE
:101320003800012820D0012684F83860022084F893
:101330003900DAB1042A2AD0082A3AD0D5E90012B5
:10134000EB68206800F0F0FB2068C16921F440617F
:10135000C1612068C169AA6841EA0221C1613834CB
:1013600066700020207070BD022070BDD5E90012AB
:10137000EB68206800F05CFB2068816921F00C01BB
:10138000816120688169AA6811438161E7E7D5E935
:101390000012EB68206800F093FB2068816921F45B
:1013A0004061816120688169AA6841EA0221816106
:1013B000D5E7D5E90012EB68206800F09CFB2068B7
:1013C000C16921F00C01C1612068C169AA6811439B
:1013D000C161C4E710B504460029226806D004297B
:1013E00009D008290CD00C2913D10EE0D06840F0A8
:1013F0000200D0600DE0D06840F00400D06008E04A
:10140000D06840F00800D06003E0D06840F01000E1
:10141000D0600122206800F0DDFA2068016841F008
:1014200001010160002010BD70B50446206801690B
:101430004FF00005C943890716D4C168C94389071D
:1014400012D4E91E0161012020762068806980079E
:1014500003D02046FFF718FF05E0204600F09BF878
:10146000204600F099F8257620680169C9434907AC
:1014700018D4C168C943490714D46FF0040101614D
:10148000022020762068806910F4407F03D0204637
:10149000FFF7FAFE05E0204600F07DF8204600F058
:1014A0007BF8257620680169C943090717D4C1680C
:1014B000C943090713D46FF00801016104202076A5
:1014C0002068C069800703D02046FFF7DDFE05E0F5
:1014D000204600F060F8204600F05EF8257620688F
:1014E0000169C943C90618D4C168C943C90614D4DF
:1014F0006FF010010161082020762068C06910F4A7
:10150000407F03D02046FFF7BFFE05E0204600F0F5
:1015100042F8204600F040F8257620680169C9436A
:10152000C90708D1C168C943C90704D1891E01612F
:10153000204600F033F820680169C943090609D440
:10154000C168C943090605D46FF0800101612046D6
:10155000FFF78DFD20680169C943490609D4C168B8
:10156000C943490605D46FF040010161204600F0EF
:101570003FF820680169C94389060BD4C168C94393
:10158000890607D46FF0200101612046BDE8704054
:10159000FFF76EBD70BD704770470000024881883C
:1015A000491C81807047000008000020002290F84C
:1015B0003830012B0AD0012380F8383041B104299A
:1015C00009D008290AD00C290DD10AE00220704761
:1015D00001684A6B07E001688A6B04E00168CA6B26
:1015E00001E001680A6C002180F83810104670474D
:1015F000704770B50446002C04D094F839000025DB
:1016000010B106E0012070BD84F83850204600F08B
:1016100021F8022084F839002068C16821F40051C3
:10162000C160204600F09CFA2068016921F49041D5
:1016300001612068416921F02A0141612068C16887
:1016400041F40051C160E563012084F839000020B5
:1016500070BD000010B586B00068114988421DD1E8
:101660001048816941F480418161806900F48040C3
:1016700001904FF400700290022003900320059027
:10168000094C02A92046FEF7DBFD2115029100213D
:101690000391049102A92046FEF7D2FD06B010BDC9
:1016A0000038014000100240000801402DE9F041DF
:1016B00004460D46984694F83900012804D02228A3
:1016C00002D00220BDE8F0819DB192B194F83800BB
:1016D000012810D0012684F838600027E76394F8C9
:1016E0003900222809D0122084F83900A284E2842B
:1016F0002EE00120E6E70220E4E7322084F83900FA
:10170000F4E7401EE084A068B0F5805F08D043464F
:1017100000228021204600F0A9FAA8B10320D1E7D9
:10172000434600228021204600F0A0FA08B10320A1
:10173000C8E728882168C0F308004860206908B11C
:101740006D1C05E0AD1C03E0216815F8010B486035
:10175000E08C0028D5D1434600224021204600F0ED
:1017600085FA08B10320ADE794F83900322805D096
:1017700084F8396084F838700020A3E7222084F8C8
:101780003900F7E7FEE70000F0B585B0224881692F
:1017900041F008018161816901F0080100918169CE
:1017A00041F480718161816901F4807100918169E6
:1017B00041F480718161806900F480700090174F5E
:1017C000002201213846FEF747FE154E0022402137
:1017D0003046FEF741FE002280213046FEF73CFEF7
:1017E0000124019402940225049501A93846FEF7CC
:1017F00027FD402001900294049501A93046FEF790
:101800001FFD802001900294049501A93046FEF747
:1018100017FD05B0F0BD000000100240000C0140B3
:101820000020014082B00D48816941F004018161CE
:10183000806900F0040001900A48094901604FF4F2
:10184000E131416000218160C16001610C2242618F
:101850008161C16102B0FFF7CCBE00000010024000
:101860000038014050000020FEE770470907090ECC
:10187000002806DA00F00F0000F1E02080F8141DC7
:10188000704700F1E02080F80014704710B5FEF7B3
:10189000F1FDBDE81040FFF7E6BB30B58FB0012089
:1018A0000590000406900024079402250C950D90E5
:1018B0004FF4E0100E9005A8FFF75EF80F2000909F
:1018C0000195029468020390049402216846FEF791
:1018D00069FEFEF7C3FF4FF47A71B0FBF1F0FFF73A
:1018E000AEFB0420FFF79CFB00221146501EFEF7C2
:1018F00027FE0FB030BD00000D48016841F0010126
:10190000016041680B4A1140416001680A4A114078
:101910000160016821F480210160416821F4FE0129
:1019200041604FF41F0181600449C00308607047A3
:10193000001002400000FFF8FFFFF6FE08ED00E097
:101940000148FFF771BD0000140000202DE9F041AF
:1019500002681B4D1B4E1C4FDFF870C01C4B4FF034
:101960008048A84209D0984207D0404505D0B042EF
:1019700003D0B84201D0604503D122F070044A6818
:101980002243A84209D0984207D0404505D0B04232
:1019900003D0B84201D0604503D122F44074CA6834
:1019A000224302608A68C2620A688262A84201D049
:1019B000984201D10969016301214161BDE8F081CB
:1019C000002C01400004004000080040000C0040D2
:1019D0000034014010B501238B40046A9C4304622B
:1019E000036A8A401343036210BD10B5846824F46F
:1019F0007F4442EA03220A432243826010BD826888
:101A000022F070020A4342F007018160704710B56E
:101A1000036A046A24F001040462846924F0F00477
:101A200044EA021423F00A020A438461026210BDF0
:101A300070B5046A24F0010404628469056A124ED8
:101A4000B0420ED0114EB0420BD0B0F1804F08D052
:101A50000F4EB04205D00F4EB04202D00E4EB042F3
:101A600003D124F00304144301E044F0010424F002
:101A7000F0041A0744EA126225F00A0301F00A0191
:101A800019438261016270BD002C014000340140A5
:101A90000004004000080040000C004010B5036A3C
:101AA00023F0100303628469036A24F4704444EA57
:101AB000023223F0A00343EA01118261016210BDEA
:101AC00030B5046A24F0100404628569046A25F4C0
:101AD000407545EA022222F470454FF6FF7202EA91
:101AE00003322A4324F0A003A02404EA011119437D
:101AF0008261016230BD30B5046A24F480740462EE
:101B0000C469056A24F00304144324F0F0041A079E
:101B100044EA126225F420634FF4206404EA0121B0
:101B20001943C261016230BD30B5046A24F48054A7
:101B30000462C569046A25F4407545EA022222F46C
:101B400070454FF6FF7202EA03322A4324F4204321
:101B50004FF4204404EA01311943C261016230BDEF
:101B60002DE9F041044620680169E26821F4405102
:101B700011430161A1682069014360690143206844
:101B8000C26841F20C639A430A43C260206841690B
:101B9000A26921F4407111434161334920686425F1
:101BA0003226884230D1FEF789FE00EBC00101EBFE
:101BB000001061688900B0FBF1F0B0FBF5F7FEF7AB
:101BC0007DFE00EBC00101EB001061688900B0FBF5
:101BD000F1F8FEF773FE00EBC00101EB0010616845
:101BE0008900B0FBF1F0B0FBF5F06FF0180148434D
:101BF00008EB800006EB0010B0FBF5F0216867F3FE
:101C00001F108860BDE8F081FEF742FE00EBC001C6
:101C100001EB001061688900B0FBF1F0B0FBF5F753
:101C2000FEF736FE00EBC00101EB00106168890091
:101C3000B0FBF1F8FEF72CFE00EBC00101EB001049
:101C400061688900B0FBF1F0B0FBF5F06FF01801AE
:101C5000484308EB800006EB0010B0FBF5F021686C
:101C600067F31F108860CDE7003801402DE9F04789
:101C700004460F4692461D46FEF7F6FB06464FF019
:101C800000084FF00109BAF1000F23D04AE0681CA8
:101C900020D025B1FEF7E8FB801BA8421AD92068A6
:101CA000C16821F08001C1602068C16821F0200175
:101CB000C1602068C16821F48071C16020684169F9
:101CC00021F00101416184F8399084F838800320C3
:101CD000BDE8F0872068006837EA0000D7D126E029
:101CE000681C1FD025B1FEF7BFFB801BA84219D985
:101CF0002068C16821F08001C1602068C16821F0BE
:101D00002001C1602068C16821F48071C160206831
:101D1000416921F00101416184F8399084F83880EB
:101D20000320D5E72068006837EA0000D8D00020FB
:101D3000CEE7FEE70FB4054B10B503A9044A02989D
:101D400000F018F810BC5DF814FB0000C91E000874
:101D50001000002002E008C8121F08C1002AFAD1B2
:101D600070477047002001E001C1121F002AFBD11B
:101D7000704700002DE9FF4F89B09B4604460025BF
:101D800006E025280BD05A460B999047641C6D1C21
:101D900020780028F5D10DB02846BDE8F08F002747
:101DA000B8460122474900E0074314F8013F203BB1
:101DB00002FA03F00842F7D120782E2819D114F83E
:101DC000010F47F004072A280ED06FF02F02207869
:101DD000A0F1300109290CD808EB880102EB410180
:101DE00000EB0108641CF2E70A98641C50F8048BAD
:101DF0000A9020780028CED0642808D0692806D020
:101E000075281ED05A460B9990476D1C58E00A99C8
:101E10004FF00A0901C90A91002802DA40422D2137
:101E200002E0390504D52B218DF82010012103E0B3
:101E3000F90704D02021F7E78A4608AE0DE000211B
:101E4000FAE70A994FF00A0901C90A91F7E74946EA
:101E5000FEF78AF9303106F8011D0028F7D1ADEB05
:101E6000060000F12009780701D44FF00108C845A9
:101E700002DDA8EB090000E000208046002706E014
:101E800008A85A46C05D0B9990476D1C7F1C5745AA
:101E9000F6DB04E030205A460B9990476D1CB8F1F0
:101EA0000001A8F10108F5DC05E016F8010B5A461F
:101EB0000B9990476D1CB9F10001A9F10109F4DCFF
:101EC000641C65E70928010013B54FF6FF73012272
:101ED00069460248FFF7EAFB00981CBD500000204D
:101EE000FEF7D0FAFFF7D9FCFFF74EFCFFF79AFC9C
:101EF000FEF764F919A0FFF71DFFFEF7AFFC4721BD
:101F0000B0FBF1F41A48FFF72BF900211848FFF74E
:101F100061FA184E184D0027012280213046FEF745
:101F20009BFA002280213046FEF796FA012280219A
:101F30003046FEF791FA28780128EDD1A988C1EB47
:101F4000014069880144B1FBF4F004FB1012B1FBBD
:101F5000F4F10AA0FFF7EEFE2F70DDE753544D3386
:101F60003220546573742053746172740A00000047
:101F70001400002000200140080000203E3E64655F
:101F8000636F64696E672074696D653A25642E25F8
:101F90006420730A00000000000000000102030436
:101FA0000102030406070809C81F000800000020FA
:101FB00014000000541D0008DC1F0008140000205D
:101FC0007C100000641D000800A24A04000000000C
:0C1FD00000000000000000000000000005
:0400000508000131BD
:00000001FF
